:020000020000FC
:20000000008400141001483A10BFF80400BFFD1600400034084072140800683A000000002C
:20000800DEFFED04DFC00015D8400215D8800315D8C00415D9000515D9400615D98007156A
:20001000D9C00815000B307ADA000915DA400A15DA800B15DAC00C15DB000D15DB400E15C4
:20001800DB800F15DBC01015D9401115EBFFFF04DBC012150009313A2880004C10000326FA
:200020002000022600000EC000000306DF401215E8BFFF17003DA03AD9401117DF401217FE
:20002800DFC000172801707AD8400217D8800317D8C00417D9000517D9400617D9800717F7
:20003000D9C00817DA000917DA400A17DA800B17DAC00C17DB000D17DB400E17DB800F17CA
:20003800DBC01017DEC01304EF80083ADEFFF904DFC00615DF000515DF0005040005313A9B
:20004000E0BFFF15E0BFFF17E0BFFE15E0BFFE17E0BFFB15E03FFD1500800044E0BFFC157E
:20004800E0FFFB17E0BFFC171884703A1005003A1000101E00C0003418C7F004E0BFFD17A8
:200050001080022410C9883A00C0003418C7F004E0BFFD171080022410C5883A10800104E3
:2000580020C0001711000017E17FFD17183EE83A00000706E0BFFC171085883AE0BFFC15B7
:20006000E0BFFD1710800044E0BFFD15003FE4060005313AE0BFFE15E0BFFE17E0BFFF1596
:20006800E0BFFF17E0BFFB15E0BFFB171005003A1000011E003FD706DFC00617DF00051712
:20007000DEC00704F800283A06C00034DEE0001406800034D6A7DB14008000341087EE142E
:2000780000C0003418C8731410C00326100000151080010410FFFD36000043C0003FFF06D1
:20008000DEFFFD04DF000215DF000204E13FFE15E17FFF15D0E0001700A4001410800017DA
:200088001880001500E400140080013410BFFFC418800315D0A0001710000015DF00021718
:20009000DEC00304F800283ADEFFFE04DFC00115DF000015D839883A00E400140080013449
:2000980010BFFFC41880021500E400140080013410BFFFC4188003150009883A000B883A80
:2000A000018000343180800400002BC0DFC00117DF000017DEC00204F800283ADEFFFE04E1
:2000A800DFC00115DF000015D839883A00002480D0A0001710000015003FFF06DEFFF30454
:2000B000DF000C15DF000C04E13FF415E17FF515E1BFF61500BFFA84E0BFF715E0BFF41771
:2000B800108008281000511E0005303AE0BFFA150001703AE0BFFA17E0BFF915E0BFF91715
:2000C000E0BFF81500C0003418C7F004E0BFF4171080022410C7883AE0BFF617188000155B
:2000C80000C0003418C7F004E0BFF4171080022410C5883A10C00104E0BFF517188000152D
:2000D000E0BFF6171005003A1000191EE0BFF417E0BFFA150005303AE0BFFD150001703AAB
:2000D800E0BFFD17E0BFFC15E0BFFC17E0BFFB1500C00044E0BFFA171886983AD0A0011798
:2000E00010C4B03AD0A00115D0A00117100170FAE0BFFB17E0BFFD15E0BFFD171001703AE9
:2000E800E03FF915E0BFF917E0BFFF1500001906E0BFF417E0BFFD150005303AE0BFFE15CE
:2000F0000001703AE0BFFE17E0BFFA15E0BFFA17E0BFFB1500C00044E0BFFD171884983A5F
:2000F8000086303AD0A0011710C4703AD0A00115D0A00117100170FAE0BFFB17E0BFFE1506
:20010000E0BFFE171001703AE03FFC15E0BFFC17E0BFFF15E0BFFF17E0BFF715E0BFF817CD
:20010800E0BFFE15E0BFFE171001703AE0BFF717DF000C17DEC00D04F800283ADEFFFC0421
:20011000DFC00315DF000215DF000204E03FFF15000170FA008000441001703AE03FFF15ED
:2001180000004980000061C00100003421019D0400007280D1200317D1600417D1A005170F
:20012000000029C0E0BFFE150100004400004B00E13FFE1700007C40DEFFFF04DF000015CF
:20012800D839883ADF000017DEC00104F800283ADEFFF804DFC00715DF000615DF0006047A
:20013000E13FFA15E0BFFA171004803A1000091EE0BFFA1710800324E0BFFE1500800034FE
:2001380010859004E0FFFE171887883AE0FFFE1500000106E03FFE15E0BFFE17E0BFFB159B
:20014000E0BFFB171005003A10001D1EE0BFFB1710800017108004171005003A1000071ECD
:20014800E0BFFB171080001710800417E13FFB17103EE83AE0BFFF1500000106E03FFF1505
:20015000E0FFFF17E0FFFC15E13FFA1700006CC0E0BFFC171004403A1000071E00005AC0BE
:20015800E0FFFC1700C7C83A10C0001500BFFFC4E0BFFD1500000806E03FFD150000060669
:2001600000005AC01007883A008014441880001500FFFFC4E0FFFD15E0BFFD17DFC00717E4
:20016800DF000617DEC00804F800283ADEFFFD04DFC00215DF000115DF000104D0A00B1778
:200170001005003A1000041ED0A00B17103EE83AE0BFFF1500000206D0A01404E0BFFF15F6
:20017800E0BFFF17DFC00217DF000117DEC00304F800283ADEFFFC04DF000315DF0003044A
:20018000E13FFD15E17FFE15E1BFFF15E0BFFF17DF000317DEC00404F800283ADEFFFD047A
:20018800DFC00215DF000115DF0001040080003410858104E0BFFF15E0FFFF17008000349E
:200190001085820418800736E0BFFF1710800017103EE83AE0BFFF1710BFFF04E0BFFF1559
:20019800003FF506DFC00217DF000117DEC00304F800283ADEFFFD04DFC00215DF000115D6
:2001A000DF0001040080003410858104E0BFFF15E0FFFF1700800034108582041880073641
:2001A800E0BFFF1710800017103EE83AE0BFFF1710BFFF04E0BFFF15003FF506DFC002173F
:2001B000DF000117DEC00304F800283ADEFFFE04DF000115DF000104E13FFF15E0BFFF1798
:2001B800108000D010000D1E00C0003418C59004E0BFFF171080032410C5883A108002048E
:2001C0001000001500C0003418C59004E0BFFF171080032410C5883A10000015DF00011776
:2001C800DEC00204F800283AD0A00C17DEFFFE04DC000015DFC00115114052172021883A44
:2001D0000100430428001B2628C00117008007C410C00D162880010410C00017000D883ABD
:2001D800180890BA18C0004410C000152149883A240002153005883ADFC00117DC00001794
:2001E000DEC00204F800283A00008A80100B883A01BFFFC4103FF726D0E00C1710004215F1
:2001E80010000115188052172880001519405215003FE80601400034294830041140521554
:2001F000003FE106D0A00C17DEFFF804DD800015DFC00715DC000615DC400515DC8004158E
:2001F800DCC00315DD000215DD40011515005217202D883AA0002526A0800117A540220451
:200200000027883A143FFFC48006803A1800021E008000441426983A1800191E800490BA7A
:200208001025883A1505883A14400204000008068880001729400017843FFFC494BFFF0420
:20021000103EE83A8C7FFF049827D07A80000C16A8802017954B883AB009883A14C4703AA7
:20021800103FF31E88800017843FFFC494BFFF04103EE83A8C7FFF049827D07A803FF40E23
:20022000A5000017A03FDC1ED0A00C1710C00F171800021EB009883A00014FC01009883A02
:20022800183EE83A003FFB06200B883AD1200C1702000034420234044000683A200B883A7C
:20023000D1200C170200003442043E044000683ADEFFF50428C002C400800584DC40071535
:20023800DC800615DFC00A15DF000915DC000815DCC00515DD000415DD400315DD80021526
:20024000DDC001152025883A0440040410C0032E00BFFE0418A2703A8800011689400D2ECF
:200248000005883ADFC00A17DF000917DC000817DC400717DC800617DCC00517DD000417B2
:20025000DD400317DD800217DDC00117DEC00B04F800283A9009883A000151C000807DC4F7
:2002580014401536034000346B46D9048B4D883A340003178812D0FA81803E2680C00117D9
:2002600000BFFF04820003171886703A80CB883A2880011781C002179009883A1080005472
:2002680041C00215288001153A0003150001538080800204003FDB068806D27A8812D0FA16
:20027000180009260080010410C02F2E008005041A4016C410C0042E0080150410C1153601
:200278008804D33A12401B84480490FA034000346B46D904134B883A2C00031781400926AB
:2002800001FFFF04018003C48080011711C6703A1C49C83A3100AA162000690E84000317ED
:20028800817FF91E4A400044030000346306DB0464000217830028268080011700FFFF048A
:2002900010C6703A1C49C83A008003C411006616630003156300021520000E1680C7883A51
:20029800188001179009883A1080005418800115003FCE06818002043400031781BFBF1E24
:2002A0004A400084003FE8068804D1BA12400E04003FD50600807FC410C094361808D0FA27
:2002A80061BFFE0400800044200A90FA2007D0BA310001172991883A41C0021710C4983A66
:2002B0008200031581C002152088B03A3C00031531000115440002154807883A4800A6169F
:2002B8001807D0BA034000346B46D9040080004410CE983A6900011721C0483621C4703A95
:2002C00010000A1E39CF883A00BFFF044884703A21C6703A124001041800041E39CF883AF8
:2002C8004A40010421C4703A103FFC26480490FA4817883A134D883A300B883A2C0003172B
:2002D0008140092602BFFF04020003C4808001171286703A1C49C83A410080162000180EB3
:2002D80084000317817FF91E4A400044488000CC29400204103FF11E588000CC31BFFE048C
:2002E0005AFFFFC41000E5263080021711BFFA26034000346B46D90439CF883A68C00117FF
:2002E80019C01E363800031E00001C0639CF883A4A40010419C4703A103FFC26003FDB06DD
:2002F00080C7883A188001178200031781C00217108000549009883A1880011541C002153A
:2002F8003A000315003F710688800054844B883A808001152905883A20C0005461400315FE
:2003000061400215110000159009883A2B00021528C001152B000315003F64066D400217B2
:2003080000BFFF04A8C0011718AC703AB449C83AB4400236008003C411002316D0A01017D2
:20031000073FFFC4B02F883A8887883AD0A00F17ADA7883A1D0004041700032618C403C49E
:2003180000BC000418A8703A9009883AA00B883ADB4000150000F8801021883ADB40001706
:200320001700042614C03E2E008000341086D904A8803B2668800217013FFF0410C0011760
:200328001906703A1C49C83A1C400236008003C4110005169009883A00015380003F1806F2
:200330004A7FFFC4003F57066C00021788800054210000548447883A80800115190001155D
:200338009009883A68C00215003F3006180AD27A1808D0FA28000426008001041140583688
:200340001804D1BA11000E04200490FA014000342946D9041351883A41C002173A006D2657
:2003480038800117013FFF041104703A1880052E39C002173A000326388001171104703AF4
:2003500018BFFB363A0003178200031581C002153C00031544000215003F5F068200031750
:2003580081C0021788800054844B883A41C002153A000315003F9E0648C000C4003F580688
:2003600007000034E706CF04E08000171505883AE080001584C05826D0E00F1700BFFFC4A0
:2003680018805326E080001784C7C83A10C5883AE080001580C001CC0027883A180003265D
:200370000080020410E7C83A84E1883A8505883A1083FFCC00C400041887C83A98E7883A73
:200378009009883A980B883ADB4000150000F8801007883A00BFFFC4DB40001718804E2664
:20038000E08000171C07C83A1CC9883A14C5883AE08000156C00021520800054AB4044263E
:20038800014003C42D8016360080004480800115003F98060080550410C003368804D3FA62
:2003900012401DC4003EE8060081550402401F8410FEE5368804D4BA12401F04003EE20651
:2003980000800504290016C4117FA72E0080150411403A361804D33A11001B84003FA2063A
:2003A00080800115A880011700FFFE04B13FFD0420EE703A1080004C15C4B03AA880011560
:2003A800ADC7883A0080014418800215188001152DC02436E0C00017D0A00E1710C0012E4B
:2003B000D0E00E15D0A00D1710FF722ED0E00D15003F70062005D0BA00C00044290001179C
:2003B8001886983A20C8B03A29000115003F9606D4200F15003FAF068083FFCC103FA61EDC
:2003C000008000341086D90410C00217A5C9883A2080005418800115003FE6066880011710
:2003C80001C6303A10C4703A68800115003F180680800115003FDF060027883A8007883A9F
:2003D000003FAF06A94002049009883ADB40001500010F80DB400017003FD60600805504E9
:2003D800114003361804D3FA11001DC4003F66060081550401001F84117F63361804D4BAA4
:2003E00011001F04003F6006DEFFFE04DC0000152021883A2809883ADFC00115D020141590
:2003E800000155401007883A00BFFFC4188005261805883ADFC00117DC000017DEC0020414
:2003F000F800283AD0A01417103FF92680800015003FF706DEFFFB04DCC0001504C00034B4
:2003F8009CC6D904DC000315DC400215DC8001152823883A2021883ADFC00415000151C033
:20040000988002178009883A000B883A10C0011700BFFF0418A4703A9463C83A8C43FBC4FC
:200408008822D33A008400048C7FFFC48822933A888006160000F88098C002178009883AF8
:20041000044BC83A1C87883A18800926000153800005883ADFC00417DC000317DC400217CF
:20041800DC800117DCC00017DEC00504F800283A8009883A0000F880944DC83A00FFFFC434
:200420008009883A000B883A01C0003439C6CF043180005410C009263880001798C0021799
:200428008009883A1445C83A38800015198001150001538000800044003FE6060000F88057
:2004300099400217100D883A8009883A1165C83A008003C490C0005414BFDC0E28C0011572
:20043800D0E00F17008000341086CF0430C7C83A10C00015003FD506DEFFFD04DC000115E9
:20044000DC400015DFC002152821883A2023883A28003226000151C082BFFE045140011727
:2004480000BFFF84030000346306D9042892703A524D883A30C001176100021700BFFF04CC
:200450001896703A21804E262880004C32C00115000B883A1000091E50C000176080020412
:2004580050D5C83A5100021748D3883A2080742652000317410002152200031532C7883A23
:20046000188001172808C03A1080004C1000061E4AD3883A2000162630C002173200031702
:2004680040C002151A000315488000545247883A508001151A400015200017268809883AAF
:200470000200003442054E04DFC00217DC000117DC400017DEC003044000683ADFC002177F
:20047800DC000117DC400017DEC00304F800283A30C00217008000341086DB0418BFE71E30
:200480001A8003151A8002150100004450C0021550C00315003FE40600807FC412402B36C6
:200488004806D0FA018000343186D90400800044180890FA1807D0BA314001172191883ADF
:2004900041C0021710C4983A5200031551C00215288AB03A3A80031531400115428002152C
:200498008809883A0200003442054E04DFC00217DC000117DC400017DEC003044000683ABC
:2004A0002880004C4AD3883A1000071E50C0001750D5C83A5200031751C0021748D3883A73
:2004A80041C002153A000315D0A0111748C000546280021550C0011548BFC036D160101762
:2004B0008809883A0000FD40003FBC064808D27A4806D0FA2000151E180490FA0140003479
:2004B8002946D9041311883A41C002173A001E263880011700FFFF0410C4703A4880052E0F
:2004C00039C002173A0003263880011710C4703A48BFFB363A0003175200031551C002153B
:2004C8003A80031542800215003FCD0600800104110005364804D1BA10C00E04003FE606A2
:2004D00001400044003F8D060080050420C016C4113FE12E0080150411000A364804D33AD0
:2004D80010C01B84003FDC061805D0BA00C00044290001171886983A20C8B03A2900011507
:2004E000003FE50600805504110003364804D3FA10C01DC4003FD0060081550400C01F8493
:2004E800113FCD364804D4BA10C01F04003FCA0600800044000F883A2900082E280007168C
:2004F000294B883A1085883A29000E2E1007003A1800081E283FFA0E1800061E2140023627
:2004F8002149C83A388EB03A1004D07A280AD07A103FFA1E3000011E3809883A2005883A4E
:20050000F800283A1007003A183FF426003FF906DEFFFE04DC000015DFC00115000D883A2D
:200508000021883A2000081628000A1600013B00800001260085C83ADFC00117DC00001756
:20051000DEC00204F800283A0109C83A0021003A283FF60E014BC83A8021003A003FF3069A
:20051800DEFFFE04DC000015DFC00115018000440021883A2000081628000A1600013B00D4
:20052000800001260085C83ADFC00117DC000017DEC00204F800283A0109C83A3021883AC6
:20052800283FF60E014BC83A003FF406000D883A020000344204EC044000683A01800044DF
:20053000020000344204EC044000683ADEFFFD04DF000215DF000204E13FFE15E0BFFE17BD
:20053800E0BFFF1500C00044E0BFFF17180171BADF000217DEC00304F800283ADEFFFD041E
:20054000DFC00215DF000115DF000104E13FFF15E13FFF1700014CC0003FFF06DEFFFE0472
:20054800DF000115DF000104E13FFF15DF000117DEC00204F800283ADEFFFE04DF000115BD
:20055000DF000104E13FFF15DF000117DEC00204F800283ADEFFF904DF000615DF000604C1
:20055800E13FFA150005303AE0BFFE150001703AE0BFFE17E0BFFD15E0BFFD17E0BFFB15C1
:20056000D0A0121710C000C400BFFF041884703AD0A01215D0E01217E0BFFA171887883AC5
:200568000080007410A0000410C0072EE0BFFB17E0BFFE15E0BFFE171001703A00BFFFC472
:20057000E0BFFF1500000C06D0A01217E0BFFC15D0E01217E0BFFA171885883AD0A01215DE
:20057800E0BFFB17E0BFFE15E0BFFE171001703AE0BFFC17E0BFFF15E0BFFF17DF0006177B
:20058000DEC00704F800283A7665642F6C756E2F0000006C0000004300001F8C00001F8C67
:2005880000001608000000000000000000000000000005F40000000000000000000000003C
:200590000000161800000000000000000000161800000000000000000000161800000000C1
:20059800000000000000000000000000000000000000000000000000000000000000000043
:2005A00000000000000000000000000000000000000000000000000000000000000000003B
:2005A800000000000000000000000000000000000000000000000000000000000000000033
:2005B00000000000000000000000000000000000000000000000000000000000000000002B
:2005B800000000000000000000000000000000000000000000000000000000000000000023
:2005C00000000000000000000000000000000000000000000000000000000000000000001B
:2005C800000000000000000000000000000000000000000000000000000000000000000013
:2005D00000000000000000000000000000000000000000000000000000000000000000000B
:2005D800000000000000000000000000000000000000000000000000000000000000000003
:2005E0000000000000000000000000000000000000000000000000000000000000000000FB
:2005E8000000000000000000000000000000000000000000000000000000000000000000F3
:2005F0000000000000001A2800001A8400001AE00000000000000000000000000000000011
:2005F8000000000000000000000000000000000000000000000016140000000000000000B9
:200600000000000000000000000000000000000000000000000000000000000000000000DA
:200608000000000000000000000000000000000000000000000000000000000000000000D2
:200610000000000000000000000000000000000000000000000000000000000000000000CA
:20061800000000000000000100000000ABCD330EE66D12340005DEEC0000000B0000000095
:200620000000000000000000000000000000000000000000000000000000000000000000BA
:200628000000000000000000000000000000000000000000000000000000000000000000B2
:200630000000000000000000000000000000000000000000000000000000000000000000AA
:200638000000000000000000000000000000000000000000000000000000000000000000A2
:2006400000000000000000000000000000000000000000000000000000000000000000009A
:20064800000000000000000000000000000000000000000000000000000000000000000092
:2006500000000000000000000000000000000000000000000000000000000000000000008A
:20065800000000000000000000000000000000000000000000000000000000000000000082
:2006600000000000000000000000000000000000000000000000000000000000000000007A
:20066800000000000000000000000000000000000000000000000000000000000000000072
:2006700000000000000000000000000000000000000000000000000000000000000000006A
:20067800000000000000000000000000000000000000000000000000000000000000000062
:2006800000000000000000000000000000000000000000000000000000000000000000005A
:20068800000000000000000000000000000000000000000000000000000000000000000052
:2006900000000000000000000000000000000000000000000000000000000000000000004A
:20069800000000000000000000000000000000000000000000000000000000000000000042
:2006A00000000000000000000000000000000000000000000000000000000000000000003A
:2006A800000000000000000000000000000000000000000000000000000000000000000032
:2006B00000000000000000000000000000000000000000000000000000000000000000002A
:2006B800000000000000000000000000000000000000000000000000000000000000000022
:2006C00000000000000000000000000000000000000000000000000000000000000000001A
:2006C800000000000000000000000000000000000000000000000000000000000000000012
:2006D00000000000000000000000000000000000000000000000000000000000000000000A
:2006D80000000000000000000000000000001B6400001B6400001B6C00001B6C00001B7467
:2006E00000001B7400001B7C00001B7C00001B8400001B8400001B8C00001B8C00001B9402
:2006E80000001B9400001B9C00001B9C00001BA400001BA400001BAC00001BAC00001BB4FA
:2006F00000001BB400001BBC00001BBC00001BC400001BC400001BCC00001BCC00001BD4F2
:2006F80000001BD400001BDC00001BDC00001BE400001BE400001BEC00001BEC00001BF4EA
:2007000000001BF400001BFC00001BFC00001C0400001C0400001C0C00001C0C00001C14DC
:2007080000001C1400001C1C00001C1C00001C2400001C2400001C2C00001C2C00001C34D1
:2007100000001C3400001C3C00001C3C00001C4400001C4400001C4C00001C4C00001C54C9
:2007180000001C5400001C5C00001C5C00001C6400001C6400001C6C00001C6C00001C74C1
:2007200000001C7400001C7C00001C7C00001C8400001C8400001C8C00001C8C00001C94B9
:2007280000001C9400001C9C00001C9C00001CA400001CA400001CAC00001CAC00001CB4B1
:2007300000001CB400001CBC00001CBC00001CC400001CC400001CCC00001CCC00001CD4A9
:2007380000001CD400001CDC00001CDC00001CE400001CE400001CEC00001CEC00001CF4A1
:2007400000001CF400001CFC00001CFC00001D0400001D0400001D0C00001D0C00001D1494
:2007480000001D1400001D1C00001D1C00001D2400001D2400001D2C00001D2C00001D3489
:2007500000001D3400001D3C00001D3C00001D4400001D4400001D4C00001D4C00001D5481
:2007580000001D5400001D5C00001D5C00001D6400001D6400001D6C00001D6C00001D7479
:2007600000001D7400001D7C00001D7C00001D8400001D8400001D8C00001D8C00001D9471
:2007680000001D9400001D9C00001D9C00001DA400001DA400001DAC00001DAC00001DB469
:2007700000001DB400001DBC00001DBC00001DC400001DC400001DCC00001DCC00001DD461
:2007780000001DD400001DDC00001DDC00001DE400001DE400001DEC00001DEC00001DF459
:2007800000001DF400001DFC00001DFC00001E0400001E0400001E0C00001E0C00001E144C
:2007880000001E1400001E1C00001E1C00001E2400001E2400001E2C00001E2C00001E3441
:2007900000001E3400001E3C00001E3C00001E4400001E4400001E4C00001E4C00001E5439
:2007980000001E5400001E5C00001E5C00001E6400001E6400001E6C00001E6C00001E7431
:2007A00000001E7400001E7C00001E7C00001E8400001E8400001E8C00001E8C00001E9429
:2007A80000001E9400001E9C00001E9C00001EA400001EA400001EAC00001EAC00001EB421
:2007B00000001EB400001EBC00001EBC00001EC400001EC400001ECC00001ECC00001ED419
:2007B80000001ED400001EDC00001EDC00001EE400001EE400001EEC00001EEC00001EF411
:2007C00000001EF400001EFC00001EFC00001F0400001F0400001F0C00001F0C00001F1404
:2007C80000001F1400001F1C00001F1C00001F2400001F2400001F2C00001F2C00001F34F9
:2007D00000001F3400001F3C00001F3C00001F4400001F4400001F4C00001F4C00001F54F1
:2007D80000001F5400001F5C00001F5C0000901000000000FFFFFFFF0000000000000000FC
:2007E0000000000000001F8400001F840000161800001618FFFFFFFF00000000000017C084
:2007E8000000000000000000FFFFFFFF0000000000020000000021CC000000000000000006
:2007F0000000000000000000000000000000000000000000000000000000000000000000E9
:2007F8000000000000000000000000000000000000000000000000000000000000000000E1
:200800000000000000000000000000000000000000000000000000000000000000000000D8
:200808000000000000000000000000000000000000000000000000000000000000000000D0
:00000001FF
