:020000020000FC
:20000000008400141001483A10BFF80400BFFD1600400034084072140800683A000000002C
:20000800DEFFED04DFC00015D8400215D8800315D8C00415D9000515D9400615D98007156A
:20001000D9C00815000B307ADA000915DA400A15DA800B15DAC00C15DB000D15DB400E15C4
:20001800DB800F15DBC01015D9401115EBFFFF04DBC012150009313A2880004C10000326FA
:200020002000022600000EC000000306DF401215E8BFFF17003DA03AD9401117DF401217FE
:20002800DFC000172801707AD8400217D8800317D8C00417D9000517D9400617D9800717F7
:20003000D9C00817DA000917DA400A17DA800B17DAC00C17DB000D17DB400E17DB800F17CA
:20003800DBC01017DEC01304EF80083ADEFFF904DFC00615DF000515DF0005040005313A9B
:20004000E0BFFF15E0BFFF17E0BFFE15E0BFFE17E0BFFB15E03FFD1500800044E0BFFC157E
:20004800E0FFFB17E0BFFC171884703A1005003A1000101E00C0003418C97404E0BFFD1722
:200050001080022410C9883A00C0003418C97404E0BFFD171080022410C5883A108001045D
:2000580020C0001711000017E17FFD17183EE83A00000706E0BFFC171085883AE0BFFC15B7
:20006000E0BFFD1710800044E0BFFD15003FE4060005313AE0BFFE15E0BFFE17E0BFFF1596
:20006800E0BFFF17E0BFFB15E0BFFB171005003A1000011E003FD706DFC00617DF00051712
:20007000DEC00704F800283A06C00034DEE0001406800034D6A95D14008000341089721424
:2000780000C0003418C9F71410C00326100000151080010410FFFD3600009C40003FFF0673
:20008000DEFFFD04DF000215DF000204E13FFE1500801004E0BFFF15E0BFFE17108002A83F
:200088001000231EE0BFFE1710C00124008000341086FA041885883A108000171000683A5E
:2000900000801004E0BFFF150000190600801E44E0BFFF150000160600800904E0BFFF15F9
:200098000000130600800C04E0BFFF150000100600800644E0BFFF1500000D06008004843E
:2000A000E0BFFF1500000A0600800084E0BFFF150000070600801E04E0BFFF15000004065A
:2000A800E03FFF150000020600800404E0BFFF15E0BFFF17DF000217DEC00304F800283A16
:2000B000DEFFFD04DF000215DF000204E13FFE15E17FFF1500A408141000021500E40814E9
:2000B800008000441880031500A40C1410800017108001181000041ED0A0021710800284CF
:2000C000D0A0021500000F0600A40C1410800017108000981000041ED0A002171080014461
:2000C800D0A002150000070600A40C1410800017108000581000031ED0A0021710800044A3
:2000D000D0A0021500E40C14008001C418800315DF000217DEC00304F800283ADEFFFE04BA
:2000D800DFC00115DF000015D839883A00E40C14008001C41880021500E40C14008001C44B
:2000E0001880031501000044000B883A018000343180B00400008440DFC00117DF000017B3
:2000E800DEC00204F800283ADEFFFD04DF000215DF000204E13FFE15E17FFF15D020001595
:2000F000D0A00217D0A0011500E418140080004418800315DF000217DEC00304F800283A66
:2000F800DEFFFE04DFC00115DF000015D839883A00E41814008000441880021500E41814FA
:20010000008000441880031501000104000B883A018000343180EA0400008440DFC00117C9
:20010800DF000017DEC00204F800283ADEFFFD04DF000215DF000204E13FFE15E17FFF1583
:2001100000A418141000021500E418140080004418800315D0E00217D0A000171885C83A65
:20011800D0A0011500E410140080004418800315DF000217DEC00304F800283ADEFFFE04EF
:20012000DFC00115DF000015D839883A00E41014008000441880021500E4101400800044FC
:200128001880031501000084000B883A0180003431810B0400008440DFC00117DF000017CE
:20013000DEC00204F800283ADEFFFC04DFC00315DF000215DF000204E13FFE15E17FFF159B
:20013800D0E00217D0A0001718800716D0A002171005003A1000041E00E4041400800044D8
:20014000188000150000020600A4041410000015010003F4211090040000A38000A404146D
:2001480010000015D0200015D0200115D020021500E414140080004418800315DFC0031727
:20015000DF000217DEC00404F800283ADEFFFE04DFC00115DF000015D839883A00E4141430
:20015800008000441880021500E414140080004418800315010000C4000B883A018000344D
:200160003181320400008440DFC00117DF000017DEC00204F800283ADEFFFD04DFC0021594
:20016800DF000115DC000015DF000104D0200015D0200115D0200215000035C000003E0068
:20017000000047C0000054C000A4081410800017108001181000031E00800504D0A0001505
:2001780000000D0600A4081410800017108000981000031E00800384D0A0001500000606FC
:2001800000A4081410800017108000581000021E00800284D0A0001504241C14D1200017F5
:2001880001400284000078801009883A000020008080001504242014D1200017014002845D
:2001900000007D801009883A0000200080800015D0E00217D0A0001718800716D0A00217B4
:200198001005003A1000041E00E4001400800044188000150000020600A400141000001578
:2001A00004242414D120021701400284000078801009883A000020008080001504242814A2
:2001A800D12002170140028400007D801009883A000020008080001504242C14D1200117E8
:2001B00001400284000078801009883A000020008080001504243014D12001170140028424
:2001B80000007D801009883A01400144000078801009883A00002000808000150424341451
:2001C000D12001170140028400007D801009883A0140014400007D801009883A00002000F9
:2001C80080800015003FA80600800044000F883A2900082E28000716294B883A1085883A4F
:2001D00029000E2E1007003A1800081E283FFA0E1800061E214002362149C83A388EB03ABB
:2001D8001004D07A280AD07A103FFA1E3000011E3809883A2005883AF800283A1007003AE2
:2001E000183FF426003FF906DEFFFE04DC000015DFC00115000D883A0021883A20000816DB
:2001E80028000A1600007280800001260085C83ADFC00117DC000017DEC00204F800283AE7
:2001F0000109C83A0021003A283FF60E014BC83A8021003A003FF306DEFFFE04DC000015EC
:2001F800DFC00115018000440021883A2000081628000A1600007280800001260085C83AE4
:20020000DFC00117DC000017DEC00204F800283A0109C83A3021883A283FF60E014BC83A5E
:20020800003FF406000D883A020000344201CA044000683A01800044020000344201CA0499
:200210004000683ADEFFF304DF000C15DF000C04E13FF415E17FF515E1BFF61500BFFA84AE
:20021800E0BFF715E0BFF417108008281000511E0005303AE0BFFA150001703AE0BFFA17BA
:20022000E0BFF915E0BFF917E0BFF81500C0003418C97404E0BFF4171080022410C7883A70
:20022800E0BFF6171880001500C0003418C97404E0BFF4171080022410C5883A10C0010444
:20023000E0BFF51718800015E0BFF6171005003A1000191EE0BFF417E0BFFA150005303A4D
:20023800E0BFFD150001703AE0BFFD17E0BFFC15E0BFFC17E0BFFB1500C00044E0BFFA17D2
:200240001886983AD0A0031710C4B03AD0A00315D0A00317100170FAE0BFFB17E0BFFD15F7
:20024800E0BFFD171001703AE03FF915E0BFF917E0BFFF1500001906E0BFF417E0BFFD151F
:200250000005303AE0BFFE150001703AE0BFFE17E0BFFA15E0BFFA17E0BFFB1500C00044FD
:20025800E0BFFD171884983A0086303AD0A0031710C4703AD0A00315D0A00317100170FAE0
:20026000E0BFFB17E0BFFE15E0BFFE171001703AE03FFC15E0BFFC17E0BFFF15E0BFFF1762
:20026800E0BFF715E0BFF817E0BFFE15E0BFFE171001703AE0BFF717DF000C17DEC00D049E
:20027000F800283ADEFFFC04DFC00315DF000215DF000204E03FFF15000170FA0080004443
:200278001001703AE03FFF150000A2000000D1800100003421035C040000E240D12005179D
:20028000D1600617D1A0071700005980E0BFFE15010000440000BAC0E13FFE170000EC0016
:20028800DEFFFF04DF000015D839883ADF000017DEC00104F800283ADEFFFD04DFC0021528
:20029000DF000115DF000104E13FFF15E13FFF170000A640DFC00217DF000117DEC00304D1
:20029800F800283ADEFFFA04DFC00515DF000415DF000404E13FFC15008000C4E0BFFF1551
:2002A000E0FFFF17008003F410909004188B383A0100BEF4213C200400008240100B883AB6
:2002A80001200034213FFFC400008240100B883AE13FFC1700008240E0BFFE15E0BFFE17C4
:2002B0001005003A1000281EE03FFD15E0FFFD17E0BFFE171880170E00A0003410BFFFC48E
:2002B80010BFFFC4103FFE1EE0FFFF17008003F410909004188B383A0100BEF4213C200440
:2002C00000008240100B883A01200034213FFFC4000082401007883AE0BFFC1710C5C83AE3
:2002C800E0BFFC15E0BFFD1710800044E0BFFD15003FE606E0FFFF17008003F41090900463
:2002D000188B383A0100BEF4213C2004000082401007883AE0BFFC171885383A10BFFFC4D7
:2002D800103FFE1E00000C06E0FFFF17008003F410909004188B383A0100BEF4213C2004A0
:2002E000000082401007883AE0BFFC171885383A10BFFFC400BFFE160005883ADFC00517BB
:2002E800DF000417DEC00604F800283ADEFFF804DFC00715DF000615DF000604E13FFA1554
:2002F000E0BFFA171004803A1000091EE0BFFA1710800324E0BFFE150080003410871204BF
:2002F800E0FFFE171887883AE0FFFE1500000106E03FFE15E0BFFE17E0BFFB15E0BFFB1752
:200300001005003A10001D1EE0BFFB1710800017108004171005003A1000071EE0BFFB170B
:200308001080001710800417E13FFB17103EE83AE0BFFF1500000106E03FFF15E0FFFF17FF
:20031000E0FFFC15E13FFA170000DC80E0BFFC171004403A1000071E0000CA80E0FFFC179F
:2003180000C7C83A10C0001500BFFFC4E0BFFD1500000806E03FFD15000006060000CA804F
:200320001007883A008014441880001500FFFFC4E0FFFD15E0BFFD17DFC00717DF00061740
:20032800DEC00804F800283ADEFFFD04DFC00215DF000115DF000104D0A00D171005003A61
:200330001000041ED0A00D17103EE83AE0BFFF1500000206D0A01604E0BFFF15E0BFFF17CA
:20033800DFC00217DF000117DEC00304F800283ADEFFFC04DF000315DF000304E13FFD150B
:20034000E17FFE15E1BFFF15E0BFFF17DF000317DEC00404F800283ADEFFFD04DFC0021534
:20034800DF000115DF000104008000341086F904E0BFFF15E0FFFF17008000341086FA0485
:2003500018800736E0BFFF1710800017103EE83AE0BFFF1710BFFF04E0BFFF15003FF50678
:20035800DFC00217DF000117DEC00304F800283ADEFFFD04DFC00215DF000115DF0001046A
:20036000008000341086F904E0BFFF15E0FFFF17008000341086FA0418800736E0BFFF17BC
:2003680010800017103EE83AE0BFFF1710BFFF04E0BFFF15003FF506DFC00217DF0001173B
:20037000DEC00304F800283ADEFFFE04DF000115DF000104E13FFF15E0BFFF17108000D06D
:2003780010000D1E00C0003418C71204E0BFFF171080032410C5883A108002041000001583
:2003800000C0003418C71204E0BFFF171080032410C5883A10000015DF000117DEC00204B1
:20038800F800283AD0A00E17DEFFFE04DC000015DFC00115114052172021883A01004304DC
:2003900028001B2628C00117008007C410C00D162880010410C00017000D883A180890BAD9
:2003980018C0004410C000152149883A240002153005883ADFC00117DC000017DEC0020498
:2003A000F800283A0000FA40100B883A01BFFFC4103FF726D0E00E1710004215100001157B
:2003A800188052172880001519405215003FE806014000342949B40411405215003FE1060D
:2003B000D0A00E17DEFFF804DD800015DFC00715DC000615DC400515DC800415DCC003153C
:2003B800DD000215DD40011515005217202D883AA0002526A0800117A54022040027883A5A
:2003C000143FFFC48006803A1800021E008000441426983A1800191E800490BA1025883AAB
:2003C8001505883A14400204000008068880001729400017843FFFC494BFFF04103EE83AE6
:2003D0008C7FFF049827D07A80000C16A8802017954B883AB009883A14C4703A103FF31EF6
:2003D80088800017843FFFC494BFFF04103EE83A8C7FFF049827D07A803FF40EA500001706
:2003E000A03FDC1ED0A00E1710C00F171800021EB009883A0001ADC01009883A183EE83A25
:2003E800003FFB06200B883AD1200E17020000344203F3044000683A200B883AD1200E175B
:2003F000020000344205FD044000683ADEFFF50428C002C400800584DC400715DC80061551
:2003F800DFC00A15DF000915DC000815DCC00515DD000415DD400315DD800215DDC0011529
:200400002025883A0440040410C0032E00BFFE0418A2703A8800011689400D2E0005883AF9
:20040800DFC00A17DF000917DC000817DC400717DC800617DCC00517DD000417DD40031780
:20041000DD800217DDC00117DEC00B04F800283A9009883A0001AFC000807DC4144015366F
:20041800034000346B485B048B4D883A340003178812D0FA81803E2680C0011700BFFF0470
:20042000820003171886703A80CB883A2880011781C002179009883A1080005441C002155A
:20042800288001153A0003150001B18080800204003FDB068806D27A8812D0FA18000926C7
:200430000080010410C02F2E008005041A4016C410C0042E0080150410C115368804D33AED
:2004380012401B84480490FA034000346B485B04134B883A2C0003178140092601FFFF04FB
:20044000018003C48080011711C6703A1C49C83A3100AA162000690E84000317817FF91E17
:200448004A4000440300003463085D0464000217830028268080011700FFFF0410C6703ADB
:200450001C49C83A008003C411006616630003156300021520000E1680C7883A188001175F
:200458009009883A1080005418800115003FCE06818002043400031781BFBF1E4A40008404
:20046000003FE8068804D1BA12400E04003FD50600807FC410C094361808D0FA61BFFE0451
:2004680000800044200A90FA2007D0BA310001172991883A41C0021710C4983A820003152C
:2004700081C002152088B03A3C00031531000115440002154807883A4800A6161807D0BACE
:20047800034000346B485B040080004410CE983A6900011721C0483621C4703A10000A1EC0
:2004800039CF883A00BFFF044884703A21C6703A124001041800041E39CF883A4A400104DF
:2004880021C4703A103FFC26480490FA4817883A134D883A300B883A2C0003178140092608
:2004900002BFFF04020003C4808001171286703A1C49C83A410080162000180E8400031743
:20049800817FF91E4A400044488000CC29400204103FF11E588000CC31BFFE045AFFFFC44C
:2004A0001000E5263080021711BFFA26034000346B485B0439CF883A68C0011719C01E36A8
:2004A8003800031E00001C0639CF883A4A40010419C4703A103FFC26003FDB0680C7883A3F
:2004B000188001178200031781C00217108000549009883A1880011541C002153A0003152F
:2004B800003F710688800054844B883A808001152905883A20C000546140031561400215D6
:2004C000110000159009883A2B00021528C001152B000315003F64066D40021700BFFF04E7
:2004C800A8C0011718AC703AB449C83AB4400236008003C411002316D0A01217073FFFC4C8
:2004D000B02F883A8887883AD0A01117ADA7883A1D0004041700032618C403C400BC000424
:2004D80018A8703A9009883AA00B883ADB400015000168401021883ADB4000171700042693
:2004E00014C03E2E0080003410885B04A8803B2668800217013FFF0410C001171906703A93
:2004E8001C49C83A1C400236008003C4110005169009883A0001B180003F18064A7FFFC410
:2004F000003F57066C00021788800054210000548447883A80800115190001159009883ACD
:2004F80068C00215003F3006180AD27A1808D0FA2800042600800104114058361804D1BA7B
:2005000011000E04200490FA0140003429485B041351883A41C002173A006D2638800117E8
:20050800013FFF041104703A1880052E39C002173A000326388001171104703A18BFFB36FA
:200510003A0003178200031581C002153C00031544000215003F5F068200031781C002173C
:2005180088800054844B883A41C002153A000315003F9E0648C000C4003F580607000034E5
:20052000E7085104E08000171505883AE080001584C05826D0E0111700BFFFC41880532682
:20052800E080001784C7C83A10C5883AE080001580C001CC0027883A180003260080020426
:2005300010E7C83A84E1883A8505883A1083FFCC00C400041887C83A98E7883A9009883ADC
:20053800980B883ADB400015000168401007883A00BFFFC4DB40001718804E26E080001755
:200540001C07C83A1CC9883A14C5883AE08000156C00021520800054AB404426014003C4EB
:200548002D8016360080004480800115003F98060080550410C003368804D3FA12401DC475
:20055000003EE8060081550402401F8410FEE5368804D4BA12401F04003EE2060080050439
:20055800290016C4117FA72E0080150411403A361804D33A11001B84003FA20680800115EB
:20056000A880011700FFFE04B13FFD0420EE703A1080004C15C4B03AA8800115ADC7883A7E
:200568000080014418800215188001152DC02436E0C00017D0A0101710C0012ED0E01015E8
:20057000D0A00F1710FF722ED0E00F15003F70062005D0BA00C00044290001171886983A39
:2005780020C8B03A29000115003F9606D4201115003FAF068083FFCC103FA61E00800034D4
:2005800010885B0410C00217A5C9883A2080005418800115003FE6066880011701C6303A4D
:2005880010C4703A68800115003F180680800115003FDF060027883A8007883A003FAF061A
:20059000A94002049009883ADB40001500017F40DB400017003FD606008055041140033661
:200598001804D3FA11001DC4003F66060081550401001F84117F63361804D4BA11001F0438
:2005A000003F6006DEFFFE04DC0000152021883A2809883ADFC00115D02016150001B3400C
:2005A8001007883A00BFFFC4188005261805883ADFC00117DC000017DEC00204F800283A8E
:2005B000D0A01617103FF92680800015003FF706DEFFFB04DCC0001504C000349CC85B0487
:2005B800DC000315DC400215DC8001152823883A2021883ADFC004150001AFC09880021721
:2005C0008009883A000B883A10C0011700BFFF0418A4703A9463C83A8C43FBC48822D33AB5
:2005C800008400048C7FFFC48822933A888006160001684098C002178009883A044BC83A6C
:2005D0001C87883A188009260001B1800005883ADFC00417DC000317DC400217DC8001178D
:2005D800DCC00017DEC00504F800283A8009883A00016840944DC83A00FFFFC48009883A6B
:2005E000000B883A01C0003439C851043180005410C009263880001798C002178009883A54
:2005E8001445C83A38800015198001150001B18000800044003FE606000168409940021760
:2005F000100D883A8009883A1165C83A008003C490C0005414BFDC0E28C00115D0E01117CB
:2005F800008000341088510430C7C83A10C00015003FD506DEFFFD04DC000115DC40001549
:20060000DFC002152821883A2023883A280032260001AFC082BFFE045140011700BFFF84F6
:200608000300003463085B042892703A524D883A30C001176100021700BFFF041896703A70
:2006100021804E262880004C32C00115000B883A1000091E50C000176080020450D5C83A81
:200618005100021748D3883A2080742652000317410002152200031532C7883A18800117D8
:200620002808C03A1080004C1000061E4AD3883A2000162630C002173200031740C00215D9
:200628001A000315488000545247883A508001151A400015200017268809883A02000034CE
:200630004206C604DFC00217DC000117DC400017DEC003044000683ADFC00217DC00011786
:20063800DC400017DEC00304F800283A30C002170080003410885D0418BFE71E1A8003152C
:200640001A8002150100004450C0021550C00315003FE40600807FC412402B364806D0FA9E
:200648000180003431885B0400800044180890FA1807D0BA314001172191883A41C0021797
:2006500010C4983A5200031551C00215288AB03A3A80031531400115428002158809883A31
:20065800020000344206C604DFC00217DC000117DC400017DEC003044000683A2880004CE0
:200660004AD3883A1000071E50C0001750D5C83A5200031751C0021748D3883A41C002158D
:200668003A000315D0A0131748C000546280021550C0011548BFC036D16012178809883A61
:2006700000016D00003FBC064808D27A4806D0FA2000151E180490FA0140003429485B0409
:200678001311883A41C002173A001E263880011700FFFF0410C4703A4880052E39C0021787
:200680003A0003263880011710C4703A48BFFB363A0003175200031551C002153A800315B9
:2006880042800215003FCD0600800104110005364804D1BA10C00E04003FE606014000442D
:20069000003F8D060080050420C016C4113FE12E0080150411000A364804D33A10C01B8424
:20069800003FDC061805D0BA00C00044290001171886983A20C8B03A29000115003FE5068A
:2006A00000805504110003364804D3FA10C01DC4003FD0060081550400C01F84113FCD36A8
:2006A8004804D4BA10C01F04003FCA06DEFFFD04DF000215DF000204E13FFE15E0BFFE17B6
:2006B000E0BFFF1500C00044E0BFFF17180171BADF000217DEC00304F800283ADEFFFD04A5
:2006B800DFC00215DF000115DF000104E13FFF15E13FFF170001AAC0003FFF06DEFFFE049B
:2006C000DF000115DF000104E13FFF15DF000117DEC00204F800283ADEFFFE04DF00011544
:2006C800DF000104E13FFF15DF000117DEC00204F800283ADEFFF904DF000615DF00060448
:2006D000E13FFA150005303AE0BFFE150001703AE0BFFE17E0BFFD15E0BFFD17E0BFFB1548
:2006D800D0A0141710C000C400BFFF041884703AD0A01415D0E01417E0BFFA171887883A46
:2006E0000080007410A0000410C0072EE0BFFB17E0BFFE15E0BFFE171001703A00BFFFC4F9
:2006E800E0BFFF1500000C06D0A01417E0BFFC15D0E01417E0BFFA171885883AD0A014155F
:2006F000E0BFFB17E0BFFE15E0BFFE171001703AE0BFFC17E0BFFF15E0BFFF17DF00061702
:2006F800DEC00704F800283A000002400000024C0000025800000264000002700000027C9F
:200700000000028800000294000002A0000002A87665642F6C756E2F0000006C00000043D2
:200708000000259C0000259C00001C1000000000000000000000000000000CF00000000027
:20071000000000000000000000001C20000000000000000000001C20000000000000000051
:2007180000001C200000000000000000000000000000000000000000000000000000000085
:200720000000000000000000000000000000000000000000000000000000000000000000B9
:200728000000000000000000000000000000000000000000000000000000000000000000B1
:200730000000000000000000000000000000000000000000000000000000000000000000A9
:200738000000000000000000000000000000000000000000000000000000000000000000A1
:20074000000000000000000000000000000000000000000000000000000000000000000099
:20074800000000000000000000000000000000000000000000000000000000000000000091
:20075000000000000000000000000000000000000000000000000000000000000000000089
:20075800000000000000000000000000000000000000000000000000000000000000000081
:20076000000000000000000000000000000000000000000000000000000000000000000079
:20076800000000000000000000000000000000000000000000000000000000000000000071
:20077000000000000000000000000000000020300000208C000020E8000000000000000065
:200778000000000000000000000000000000000000000000000000000000000000001C1C29
:20078000000000000000000000000000000000000000000000000000000000000000000059
:20078800000000000000000000000000000000000000000000000000000000000000000051
:20079000000000000000000000000000000000000000000000000000000000000000000049
:200798000000000000000000000000000000000100000000ABCD330EE66D12340005DEEC1F
:2007A0000000000B000000000000000000000000000000000000000000000000000000002E
:2007A800000000000000000000000000000000000000000000000000000000000000000031
:2007B000000000000000000000000000000000000000000000000000000000000000000029
:2007B800000000000000000000000000000000000000000000000000000000000000000021
:2007C000000000000000000000000000000000000000000000000000000000000000000019
:2007C800000000000000000000000000000000000000000000000000000000000000000011
:2007D000000000000000000000000000000000000000000000000000000000000000000009
:2007D800000000000000000000000000000000000000000000000000000000000000000001
:2007E0000000000000000000000000000000000000000000000000000000000000000000F9
:2007E8000000000000000000000000000000000000000000000000000000000000000000F1
:2007F0000000000000000000000000000000000000000000000000000000000000000000E9
:2007F8000000000000000000000000000000000000000000000000000000000000000000E1
:200800000000000000000000000000000000000000000000000000000000000000000000D8
:200808000000000000000000000000000000000000000000000000000000000000000000D0
:200810000000000000000000000000000000000000000000000000000000000000000000C8
:200818000000000000000000000000000000000000000000000000000000000000000000C0
:200820000000000000000000000000000000000000000000000000000000000000000000B8
:200828000000000000000000000000000000000000000000000000000000000000000000B0
:200830000000000000000000000000000000000000000000000000000000000000000000A8
:200838000000000000000000000000000000000000000000000000000000000000000000A0
:20084000000000000000000000000000000000000000000000000000000000000000000098
:20084800000000000000000000000000000000000000000000000000000000000000000090
:20085000000000000000000000000000000000000000000000000000000000000000000088
:2008580000000000000000000000000000000000000000000000216C0000216C00002174D1
:20086000000021740000217C0000217C00002184000021840000218C0000218C0000219450
:20086800000021940000219C0000219C000021A4000021A4000021AC000021AC000021B448
:20087000000021B4000021BC000021BC000021C4000021C4000021CC000021CC000021D440
:20087800000021D4000021DC000021DC000021E4000021E4000021EC000021EC000021F438
:20088000000021F4000021FC000021FC00002204000022040000220C0000220C000022142B
:20088800000022140000221C0000221C00002224000022240000222C0000222C0000223420
:20089000000022340000223C0000223C00002244000022440000224C0000224C0000225418
:20089800000022540000225C0000225C00002264000022640000226C0000226C0000227410
:2008A000000022740000227C0000227C00002284000022840000228C0000228C0000229408
:2008A800000022940000229C0000229C000022A4000022A4000022AC000022AC000022B400
:2008B000000022B4000022BC000022BC000022C4000022C4000022CC000022CC000022D4F8
:2008B800000022D4000022DC000022DC000022E4000022E4000022EC000022EC000022F4F0
:2008C000000022F4000022FC000022FC00002304000023040000230C0000230C00002314E3
:2008C800000023140000231C0000231C00002324000023240000232C0000232C00002334D8
:2008D000000023340000233C0000233C00002344000023440000234C0000234C00002354D0
:2008D800000023540000235C0000235C00002364000023640000236C0000236C00002374C8
:2008E000000023740000237C0000237C00002384000023840000238C0000238C00002394C0
:2008E800000023940000239C0000239C000023A4000023A4000023AC000023AC000023B4B8
:2008F000000023B4000023BC000023BC000023C4000023C4000023CC000023CC000023D4B0
:2008F800000023D4000023DC000023DC000023E4000023E4000023EC000023EC000023F4A8
:20090000000023F4000023FC000023FC00002404000024040000240C0000240C000024149A
:20090800000024140000241C0000241C00002424000024240000242C0000242C000024348F
:20091000000024340000243C0000243C00002444000024440000244C0000244C0000245487
:20091800000024540000245C0000245C00002464000024640000246C0000246C000024747F
:20092000000024740000247C0000247C00002484000024840000248C0000248C0000249477
:20092800000024940000249C0000249C000024A4000024A4000024AC000024AC000024B46F
:20093000000024B4000024BC000024BC000024C4000024C4000024CC000024CC000024D467
:20093800000024D4000024DC000024DC000024E4000024E4000024EC000024EC000024F45F
:20094000000024F4000024FC000024FC00002504000025040000250C0000250C0000251452
:20094800000025140000251C0000251C00002524000025240000252C0000252C0000253447
:20095000000025340000253C0000253C00002544000025440000254C0000254C000025543F
:20095800000025540000255C0000255C0000256400002564000000000000000000000000F2
:2009600000000000FFFFFFFF000000000000000000000000000025940000259400001C20CD
:2009680000001C20FFFFFFFF0000000000001DC80000000000000000FFFFFFFF0000000056
:2009700000020000000027DC00000000000000000000000000000000000000000000000062
:2009780000000000000000000000000000000000000000000000000000000000000000005F
:20098000000000000000000000000000000000000000000000000000000000000000000057
:2009880000000000000000000000000000000000000000000000000000000000000000004F
:20099000000000000000000000000000000000000000000000000000000000000000000047
:00000001FF
